{
  "contractName": "Bank",
  "abi": [
    {
      "inputs": [
        {
          "internalType": "contract TekenToken",
          "name": "_tekenToken",
          "type": "address"
        }
      ],
      "stateMutability": "nonpayable",
      "type": "constructor"
    },
    {
      "inputs": [
        {
          "internalType": "address",
          "name": "",
          "type": "address"
        }
      ],
      "name": "hasStaked",
      "outputs": [
        {
          "internalType": "bool",
          "name": "",
          "type": "bool"
        }
      ],
      "stateMutability": "view",
      "type": "function",
      "constant": true
    },
    {
      "inputs": [
        {
          "internalType": "address",
          "name": "",
          "type": "address"
        }
      ],
      "name": "isStaking",
      "outputs": [
        {
          "internalType": "bool",
          "name": "",
          "type": "bool"
        }
      ],
      "stateMutability": "view",
      "type": "function",
      "constant": true
    },
    {
      "inputs": [],
      "name": "name",
      "outputs": [
        {
          "internalType": "string",
          "name": "",
          "type": "string"
        }
      ],
      "stateMutability": "view",
      "type": "function",
      "constant": true
    },
    {
      "inputs": [],
      "name": "owner",
      "outputs": [
        {
          "internalType": "address",
          "name": "",
          "type": "address"
        }
      ],
      "stateMutability": "view",
      "type": "function",
      "constant": true
    },
    {
      "inputs": [
        {
          "internalType": "uint256",
          "name": "",
          "type": "uint256"
        }
      ],
      "name": "stakers",
      "outputs": [
        {
          "internalType": "address",
          "name": "",
          "type": "address"
        }
      ],
      "stateMutability": "view",
      "type": "function",
      "constant": true
    },
    {
      "inputs": [
        {
          "internalType": "address",
          "name": "",
          "type": "address"
        }
      ],
      "name": "stakingBalance",
      "outputs": [
        {
          "internalType": "uint256",
          "name": "",
          "type": "uint256"
        }
      ],
      "stateMutability": "view",
      "type": "function",
      "constant": true
    },
    {
      "inputs": [],
      "name": "tekenToken",
      "outputs": [
        {
          "internalType": "contract TekenToken",
          "name": "",
          "type": "address"
        }
      ],
      "stateMutability": "view",
      "type": "function",
      "constant": true
    },
    {
      "inputs": [
        {
          "internalType": "uint256",
          "name": "_amount",
          "type": "uint256"
        }
      ],
      "name": "depositTokens",
      "outputs": [],
      "stateMutability": "nonpayable",
      "type": "function"
    },
    {
      "inputs": [],
      "name": "totalStakers",
      "outputs": [
        {
          "internalType": "uint256",
          "name": "",
          "type": "uint256"
        }
      ],
      "stateMutability": "view",
      "type": "function",
      "constant": true
    },
    {
      "inputs": [],
      "name": "unstakeTokens",
      "outputs": [],
      "stateMutability": "nonpayable",
      "type": "function"
    }
  ],
  "bytecode": "0x60806040526040518060400160405280600481526020017f42616e6b0000000000000000000000000000000000000000000000000000000081525060009080519060200190620000519291906200010e565b503480156200005f57600080fd5b50604051620010893803806200108983398181016040528101906200008591906200023c565b80600260006101000a81548173ffffffffffffffffffffffffffffffffffffffff021916908373ffffffffffffffffffffffffffffffffffffffff16021790555033600160006101000a81548173ffffffffffffffffffffffffffffffffffffffff021916908373ffffffffffffffffffffffffffffffffffffffff16021790555050620002d2565b8280546200011c906200029d565b90600052602060002090601f0160209004810192826200014057600085556200018c565b82601f106200015b57805160ff19168380011785556200018c565b828001600101855582156200018c579182015b828111156200018b5782518255916020019190600101906200016e565b5b5090506200019b91906200019f565b5090565b5b80821115620001ba576000816000905550600101620001a0565b5090565b600080fd5b600073ffffffffffffffffffffffffffffffffffffffff82169050919050565b6000620001f082620001c3565b9050919050565b60006200020482620001e3565b9050919050565b6200021681620001f7565b81146200022257600080fd5b50565b60008151905062000236816200020b565b92915050565b600060208284031215620002555762000254620001be565b5b6000620002658482850162000225565b91505092915050565b7f4e487b7100000000000000000000000000000000000000000000000000000000600052602260045260246000fd5b60006002820490506001821680620002b657607f821691505b602082108103620002cc57620002cb6200026e565b5b50919050565b610da780620002e26000396000f3fe608060405234801561001057600080fd5b506004361061009e5760003560e01c8063a5ce413b11610066578063a5ce413b1461015d578063c93c8f3414610167578063dd49756e14610197578063fd5e6dd1146101b3578063fe566903146101e35761009e565b806306fdde03146100a357806345bc78ab146100c15780636f49712b146100f157806386989038146101215780638da5cb5b1461013f575b600080fd5b6100ab610201565b6040516100b891906108bc565b60405180910390f35b6100db60048036038101906100d69190610941565b61028f565b6040516100e89190610987565b60405180910390f35b61010b60048036038101906101069190610941565b6102a7565b60405161011891906109bd565b60405180910390f35b6101296102c7565b6040516101369190610987565b60405180910390f35b6101476102d4565b60405161015491906109e7565b60405180910390f35b6101656102fa565b005b610181600480360381019061017c9190610941565b6104c2565b60405161018e91906109bd565b60405180910390f35b6101b160048036038101906101ac9190610a2e565b6104e2565b005b6101cd60048036038101906101c89190610a2e565b6107be565b6040516101da91906109e7565b60405180910390f35b6101eb6107fd565b6040516101f89190610aba565b60405180910390f35b6000805461020e90610b04565b80601f016020809104026020016040519081016040528092919081815260200182805461023a90610b04565b80156102875780601f1061025c57610100808354040283529160200191610287565b820191906000526020600020905b81548152906001019060200180831161026a57829003601f168201915b505050505081565b60046020528060005260406000206000915090505481565b60066020528060005260406000206000915054906101000a900460ff1681565b6000600380549050905090565b600160009054906101000a900473ffffffffffffffffffffffffffffffffffffffff1681565b6000600460003373ffffffffffffffffffffffffffffffffffffffff1673ffffffffffffffffffffffffffffffffffffffff16815260200190815260200160002054905060008111610381576040517f08c379a000000000000000000000000000000000000000000000000000000000815260040161037890610ba7565b60405180910390fd5b600260009054906101000a900473ffffffffffffffffffffffffffffffffffffffff1673ffffffffffffffffffffffffffffffffffffffff1663a9059cbb33836040518363ffffffff1660e01b81526004016103de929190610bc7565b6020604051808303816000875af11580156103fd573d6000803e3d6000fd5b505050506040513d601f19601f820116820180604052508101906104219190610c1c565b506000600460003373ffffffffffffffffffffffffffffffffffffffff1673ffffffffffffffffffffffffffffffffffffffff168152602001908152602001600020819055506000600660003373ffffffffffffffffffffffffffffffffffffffff1673ffffffffffffffffffffffffffffffffffffffff16815260200190815260200160002060006101000a81548160ff02191690831515021790555050565b60056020528060005260406000206000915054906101000a900460ff1681565b60008111610525576040517f08c379a000000000000000000000000000000000000000000000000000000000815260040161051c90610c95565b60405180910390fd5b600260009054906101000a900473ffffffffffffffffffffffffffffffffffffffff1673ffffffffffffffffffffffffffffffffffffffff166323b872dd3330846040518463ffffffff1660e01b815260040161058493929190610cb5565b6020604051808303816000875af11580156105a3573d6000803e3d6000fd5b505050506040513d601f19601f820116820180604052508101906105c79190610c1c565b5080600460003373ffffffffffffffffffffffffffffffffffffffff1673ffffffffffffffffffffffffffffffffffffffff168152602001908152602001600020546106139190610d1b565b600460003373ffffffffffffffffffffffffffffffffffffffff1673ffffffffffffffffffffffffffffffffffffffff16815260200190815260200160002081905550600560003373ffffffffffffffffffffffffffffffffffffffff1673ffffffffffffffffffffffffffffffffffffffff16815260200190815260200160002060009054906101000a900460ff1661070b576003339080600181540180825580915050600190039060005260206000200160009091909190916101000a81548173ffffffffffffffffffffffffffffffffffffffff021916908373ffffffffffffffffffffffffffffffffffffffff1602179055505b6001600660003373ffffffffffffffffffffffffffffffffffffffff1673ffffffffffffffffffffffffffffffffffffffff16815260200190815260200160002060006101000a81548160ff0219169083151502179055506001600560003373ffffffffffffffffffffffffffffffffffffffff1673ffffffffffffffffffffffffffffffffffffffff16815260200190815260200160002060006101000a81548160ff02191690831515021790555050565b600381815481106107ce57600080fd5b906000526020600020016000915054906101000a900473ffffffffffffffffffffffffffffffffffffffff1681565b600260009054906101000a900473ffffffffffffffffffffffffffffffffffffffff1681565b600081519050919050565b600082825260208201905092915050565b60005b8381101561085d578082015181840152602081019050610842565b8381111561086c576000848401525b50505050565b6000601f19601f8301169050919050565b600061088e82610823565b610898818561082e565b93506108a881856020860161083f565b6108b181610872565b840191505092915050565b600060208201905081810360008301526108d68184610883565b905092915050565b600080fd5b600073ffffffffffffffffffffffffffffffffffffffff82169050919050565b600061090e826108e3565b9050919050565b61091e81610903565b811461092957600080fd5b50565b60008135905061093b81610915565b92915050565b600060208284031215610957576109566108de565b5b60006109658482850161092c565b91505092915050565b6000819050919050565b6109818161096e565b82525050565b600060208201905061099c6000830184610978565b92915050565b60008115159050919050565b6109b7816109a2565b82525050565b60006020820190506109d260008301846109ae565b92915050565b6109e181610903565b82525050565b60006020820190506109fc60008301846109d8565b92915050565b610a0b8161096e565b8114610a1657600080fd5b50565b600081359050610a2881610a02565b92915050565b600060208284031215610a4457610a436108de565b5b6000610a5284828501610a19565b91505092915050565b6000819050919050565b6000610a80610a7b610a76846108e3565b610a5b565b6108e3565b9050919050565b6000610a9282610a65565b9050919050565b6000610aa482610a87565b9050919050565b610ab481610a99565b82525050565b6000602082019050610acf6000830184610aab565b92915050565b7f4e487b7100000000000000000000000000000000000000000000000000000000600052602260045260246000fd5b60006002820490506001821680610b1c57607f821691505b602082108103610b2f57610b2e610ad5565b5b50919050565b7f7374616b696e672062616c616e63652063616e6e6f74206265206c657373207460008201527f68616e207a65726f000000000000000000000000000000000000000000000000602082015250565b6000610b9160288361082e565b9150610b9c82610b35565b604082019050919050565b60006020820190508181036000830152610bc081610b84565b9050919050565b6000604082019050610bdc60008301856109d8565b610be96020830184610978565b9392505050565b610bf9816109a2565b8114610c0457600080fd5b50565b600081519050610c1681610bf0565b92915050565b600060208284031215610c3257610c316108de565b5b6000610c4084828501610c07565b91505092915050565b7f616d6f756e742063616e6e6f7420626520300000000000000000000000000000600082015250565b6000610c7f60128361082e565b9150610c8a82610c49565b602082019050919050565b60006020820190508181036000830152610cae81610c72565b9050919050565b6000606082019050610cca60008301866109d8565b610cd760208301856109d8565b610ce46040830184610978565b949350505050565b7f4e487b7100000000000000000000000000000000000000000000000000000000600052601160045260246000fd5b6000610d268261096e565b9150610d318361096e565b9250827fffffffffffffffffffffffffffffffffffffffffffffffffffffffffffffffff03821115610d6657610d65610cec565b5b82820190509291505056fea2646970667358221220c0883ad234175ca842e6cd331d7756626f9955682d3df7552780007bd2bab0cc64736f6c634300080d0033",
  "immutableReferences": {},
  "source": "// SPDX-License-Identifier: MIT\npragma solidity >=0.4.22 <0.9.0;\n\nimport \"./TekenToken.sol\";\n\n\ncontract Bank {\n    string public name = \"Bank\";\n    address public owner;\n    TekenToken public tekenToken;\n\n    address[] public stakers;\n\n    mapping(address => uint256) public stakingBalance;\n    mapping(address => bool) public hasStaked;\n    mapping(address => bool) public isStaking;\n\n    constructor(TekenToken _tekenToken) {\n        tekenToken = _tekenToken;\n        owner = msg.sender;\n    }\n   \n    // staking function\n    function depositTokens(uint256 _amount) public {\n        // require staking amount to be greater than zero\n        require(_amount > 0, \"amount cannot be 0\");\n        // Transfer tekenToken tokens to this contract address for staking\n        tekenToken.transferFrom(msg.sender, address(this), _amount);\n        // Update Staking Balance\n        stakingBalance[msg.sender] = stakingBalance[msg.sender] + _amount;\n        if (!hasStaked[msg.sender]) {\n            stakers.push(msg.sender);\n        }\n        // Update Staking Balance\n        isStaking[msg.sender] = true;\n        hasStaked[msg.sender] = true;\n    }\n\n function totalStakers() public view returns(uint) {\n        return stakers.length;\n    }\n\n\n\n    // unstake tokens\n    function unstakeTokens() public {\n        uint256 balance = stakingBalance[msg.sender];\n        // require the amount to be greater than zero\n        require(balance > 0, \"staking balance cannot be less than zero\");\n        // transfer the tokens to the specified contract address from our bank\n        tekenToken.transfer(msg.sender, balance);\n        // reset staking balance\n        stakingBalance[msg.sender] = 0;\n        // Update Staking Status\n        isStaking[msg.sender] = false;\n    }\n\n   \n}\n\n",
  "sourcePath": "D:\\SOLIDITY\\DAPPS from boilerplate\\dapp-stakers-react-openzeppelin\\src\\contracts\\Bank.sol",
  "compiler": {
    "name": "solc",
    "version": "0.8.13+commit.abaa5c0e.Emscripten.clang"
  },
  "schemaVersion": "3.4.7",
  "updatedAt": "2022-06-03T01:10:08.769Z",
  "networkType": "ethereum",
  "devdoc": {
    "kind": "dev",
    "methods": {},
    "version": 1
  },
  "userdoc": {
    "kind": "user",
    "methods": {},
    "version": 1
  }
}